{
	"data": {
		"bytecode": {
			"linkReferences": {},
			"object": "608060405260016005556001600755600160095534801561001f57600080fd5b50336000806101000a81548173ffffffffffffffffffffffffffffffffffffffff021916908373ffffffffffffffffffffffffffffffffffffffff160217905550611aa88061006f6000396000f3fe6080604052600436106100dc5760003560e01c80639532007a1161007f578063c87dec7a11610059578063c87dec7a1461030b578063cb2acd8014610348578063d05a04471461038b578063e4962463146103b6576100dc565b80639532007a14610263578063aa3250fa1461028e578063b027a759146102cb576100dc565b806338266fe5116100bb57806338266fe51461017b5780633a8c0e6e146101b85780635177d6d2146101fb578063586fa64d14610226576100dc565b80621e4c44146100e15780631049f50a1461010c578063237864691461014b575b600080fd5b3480156100ed57600080fd5b506100f66103e1565b6040516101039190611497565b60405180910390f35b34801561011857600080fd5b50610133600480360381019061012e91906110ca565b6103e7565b604051610142939291906113b7565b60405180910390f35b61016560048036038101906101609190610fce565b6104af565b6040516101729190611475565b60405180910390f35b34801561018757600080fd5b506101a2600480360381019061019d9190610f72565b6108ba565b6040516101af9190611497565b60405180910390f35b3480156101c457600080fd5b506101df60048036038101906101da9190611113565b6108f5565b6040516101f29796959493929190611528565b60405180910390f35b34801561020757600080fd5b506102106109df565b60405161021d9190611497565b60405180910390f35b34801561023257600080fd5b5061024d600480360381019061024891906110ca565b6109e5565b60405161025a9190611497565b60405180910390f35b34801561026f57600080fd5b50610278610a13565b6040516102859190611497565b60405180910390f35b34801561029a57600080fd5b506102b560048036038101906102b09190611042565b610a19565b6040516102c2919061139c565b60405180910390f35b3480156102d757600080fd5b506102f260048036038101906102ed9190611113565b610ba1565b604051610302949392919061159e565b60405180910390f35b34801561031757600080fd5b50610332600480360381019061032d9190610f45565b610bd1565b60405161033f919061139c565b60405180910390f35b34801561035457600080fd5b5061036f600480360381019061036a9190611113565b610bf1565b60405161038297969594939291906114b2565b60405180910390f35b34801561039757600080fd5b506103a0610cdb565b6040516103ad9190611381565b60405180910390f35b3480156103c257600080fd5b506103cb610cff565b6040516103d8919061139c565b60405180910390f35b60095481565b600381805160208101820180518482526020830160208501208183528095505050505050600091509050806000018054610420906117e9565b80601f016020809104026020016040519081016040528092919081815260200182805461044c906117e9565b80156104995780601f1061046e57610100808354040283529160200191610499565b820191906000526020600020905b81548152906001019060200180831161047c57829003601f168201915b5050505050908060010154908060020154905083565b6104b7610d5f565b60011515600160003373ffffffffffffffffffffffffffffffffffffffff1673ffffffffffffffffffffffffffffffffffffffff16815260200190815260200160002060009054906101000a900460ff1615151461054a576040517f08c379a0000000000000000000000000000000000000000000000000000000008152600401610541906113f5565b60405180910390fd5b60006004868660405161055e929190611368565b908152602001604051809103902054116105ad576040517f08c379a00000000000000000000000000000000000000000000000000000000081526004016105a490611415565b60405180910390fd5b600385856040516105bf929190611368565b9081526020016040518091039020600201546001846105de9190611671565b6105e891906116c7565b600386866040516105fa929190611368565b9081526020016040518091039020600101546106169190611671565b821015610658576040517f08c379a000000000000000000000000000000000000000000000000000000000815260040161064f90611455565b60405180910390fd5b6001600260003373ffffffffffffffffffffffffffffffffffffffff1673ffffffffffffffffffffffffffffffffffffffff16815260200190815260200160002086866040516106a9929190611368565b908152602001604051809103902060008282546106c69190611671565b925050819055506001600486866040516106e1929190611368565b908152602001604051809103902060008282546106fe9190611721565b9250508190555060006040518060e0016040528060055481526020013373ffffffffffffffffffffffffffffffffffffffff16815260200187878080601f016020809104026020016040519081016040528093929190818152602001838380828437600081840152601f19601f8201169050808301925050505050505081526020018581526020018481526020014281526020017fffffffffffffffffffffffffffffffffffffffffffffffffffffffffffffffff8152509050806006600060055481526020019081526020016000206000820151816000015560208201518160010160006101000a81548173ffffffffffffffffffffffffffffffffffffffff021916908373ffffffffffffffffffffffffffffffffffffffff160217905550604082015181600201908051906020019061083b929190610db2565b50606082015181600301556080820151816004015560a0820151816005015560c082015181600601559050503073ffffffffffffffffffffffffffffffffffffffff166108fc849081150290604051600060405180830381858888f193505050501580156108ad573d6000803e3d6000fd5b5080915050949350505050565b600260205281600052604060002081805160208101820180518482526020830160208501208183528095505050505050600091509150505481565b60086020528060005260406000206000915090508060000154908060010154908060020160009054906101000a900473ffffffffffffffffffffffffffffffffffffffff169080600301805461094a906117e9565b80601f0160208091040260200160405190810160405280929190818152602001828054610976906117e9565b80156109c35780601f10610998576101008083540402835291602001916109c3565b820191906000526020600020905b8154815290600101906020018083116109a657829003601f168201915b5050505050908060040154908060050154908060060154905087565b60075481565b6004818051602081018201805184825260208301602085012081835280955050505050506000915090505481565b60055481565b60008060009054906101000a900473ffffffffffffffffffffffffffffffffffffffff1673ffffffffffffffffffffffffffffffffffffffff163373ffffffffffffffffffffffffffffffffffffffff1614610aaa576040517f08c379a0000000000000000000000000000000000000000000000000000000008152600401610aa190611435565b60405180910390fd5b604051806060016040528087878080601f016020809104026020016040519081016040528093929190818152602001838380828437600081840152601f19601f8201169050808301925050505050505081526020018581526020018481525060038787604051610b1b929190611368565b90815260200160405180910390206000820151816000019080519060200190610b45929190610db2565b5060208201518160010155604082015181600201559050508160048787604051610b70929190611368565b90815260200160405180910390206000828254610b8d9190611671565b925050819055506001905095945050505050565b600a6020528060005260406000206000915090508060000154908060010154908060020154908060030154905084565b60016020528060005260406000206000915054906101000a900460ff1681565b60066020528060005260406000206000915090508060000154908060010160009054906101000a900473ffffffffffffffffffffffffffffffffffffffff1690806002018054610c40906117e9565b80601f0160208091040260200160405190810160405280929190818152602001828054610c6c906117e9565b8015610cb95780601f10610c8e57610100808354040283529160200191610cb9565b820191906000526020600020905b815481529060010190602001808311610c9c57829003601f168201915b5050505050908060030154908060040154908060050154908060060154905087565b60008054906101000a900473ffffffffffffffffffffffffffffffffffffffff1681565b600060018060003373ffffffffffffffffffffffffffffffffffffffff1673ffffffffffffffffffffffffffffffffffffffff16815260200190815260200160002060006101000a81548160ff0219169083151502179055506001905090565b6040518060e0016040528060008152602001600073ffffffffffffffffffffffffffffffffffffffff16815260200160608152602001600081526020016000815260200160008152602001600081525090565b828054610dbe906117e9565b90600052602060002090601f016020900481019282610de05760008555610e27565b82601f10610df957805160ff1916838001178555610e27565b82800160010185558215610e27579182015b82811115610e26578251825591602001919060010190610e0b565b5b509050610e349190610e38565b5090565b5b80821115610e51576000816000905550600101610e39565b5090565b6000610e68610e6384611608565b6115e3565b905082815260208101848484011115610e8457610e836118e8565b5b610e8f8482856117a7565b509392505050565b600081359050610ea681611a44565b92915050565b60008083601f840112610ec257610ec16118de565b5b8235905067ffffffffffffffff811115610edf57610ede6118d9565b5b602083019150836001820283011115610efb57610efa6118e3565b5b9250929050565b600082601f830112610f1757610f166118de565b5b8135610f27848260208601610e55565b91505092915050565b600081359050610f3f81611a5b565b92915050565b600060208284031215610f5b57610f5a6118f2565b5b6000610f6984828501610e97565b91505092915050565b60008060408385031215610f8957610f886118f2565b5b6000610f9785828601610e97565b925050602083013567ffffffffffffffff811115610fb857610fb76118ed565b5b610fc485828601610f02565b9150509250929050565b60008060008060608587031215610fe857610fe76118f2565b5b600085013567ffffffffffffffff811115611006576110056118ed565b5b61101287828801610eac565b9450945050602061102587828801610f30565b925050604061103687828801610f30565b91505092959194509250565b60008060008060006080868803121561105e5761105d6118f2565b5b600086013567ffffffffffffffff81111561107c5761107b6118ed565b5b61108888828901610eac565b9550955050602061109b88828901610f30565b93505060406110ac88828901610f30565b92505060606110bd88828901610f30565b9150509295509295909350565b6000602082840312156110e0576110df6118f2565b5b600082013567ffffffffffffffff8111156110fe576110fd6118ed565b5b61110a84828501610f02565b91505092915050565b600060208284031215611129576111286118f2565b5b600061113784828501610f30565b91505092915050565b61114981611755565b82525050565b61115881611755565b82525050565b61116781611767565b82525050565b61117681611773565b82525050565b61118581611773565b82525050565b60006111978385611666565b93506111a48385846117a7565b82840190509392505050565b60006111bb82611639565b6111c58185611644565b93506111d58185602086016117b6565b6111de816118f7565b840191505092915050565b60006111f482611639565b6111fe8185611655565b935061120e8185602086016117b6565b611217816118f7565b840191505092915050565b600061122f602f83611655565b915061123a82611908565b604082019050919050565b6000611252602283611655565b915061125d82611957565b604082019050919050565b6000611275601683611655565b9150611280826119a6565b602082019050919050565b6000611298605283611655565b91506112a3826119cf565b606082019050919050565b600060e0830160008301516112c6600086018261134a565b5060208301516112d96020860182611140565b50604083015184820360408601526112f182826111b0565b9150506060830151611306606086018261134a565b506080830151611319608086018261134a565b5060a083015161132c60a086018261134a565b5060c083015161133f60c086018261116d565b508091505092915050565b6113538161179d565b82525050565b6113628161179d565b82525050565b600061137582848661118b565b91508190509392505050565b6000602082019050611396600083018461114f565b92915050565b60006020820190506113b1600083018461115e565b92915050565b600060608201905081810360008301526113d181866111e9565b90506113e06020830185611359565b6113ed6040830184611359565b949350505050565b6000602082019050818103600083015261140e81611222565b9050919050565b6000602082019050818103600083015261142e81611245565b9050919050565b6000602082019050818103600083015261144e81611268565b9050919050565b6000602082019050818103600083015261146e8161128b565b9050919050565b6000602082019050818103600083015261148f81846112ae565b905092915050565b60006020820190506114ac6000830184611359565b92915050565b600060e0820190506114c7600083018a611359565b6114d4602083018961114f565b81810360408301526114e681886111e9565b90506114f56060830187611359565b6115026080830186611359565b61150f60a0830185611359565b61151c60c083018461117c565b98975050505050505050565b600060e08201905061153d600083018a611359565b61154a6020830189611359565b611557604083018861114f565b818103606083015261156981876111e9565b90506115786080830186611359565b61158560a0830185611359565b61159260c083018461117c565b98975050505050505050565b60006080820190506115b36000830187611359565b6115c06020830186611359565b6115cd6040830185611359565b6115da6060830184611359565b95945050505050565b60006115ed6115fe565b90506115f9828261181b565b919050565b6000604051905090565b600067ffffffffffffffff821115611623576116226118aa565b5b61162c826118f7565b9050602081019050919050565b600081519050919050565b600082825260208201905092915050565b600082825260208201905092915050565b600081905092915050565b600061167c8261179d565b91506116878361179d565b9250827fffffffffffffffffffffffffffffffffffffffffffffffffffffffffffffffff038211156116bc576116bb61184c565b5b828201905092915050565b60006116d28261179d565b91506116dd8361179d565b9250817fffffffffffffffffffffffffffffffffffffffffffffffffffffffffffffffff04831182151516156117165761171561184c565b5b828202905092915050565b600061172c8261179d565b91506117378361179d565b92508282101561174a5761174961184c565b5b828203905092915050565b60006117608261177d565b9050919050565b60008115159050919050565b6000819050919050565b600073ffffffffffffffffffffffffffffffffffffffff82169050919050565b6000819050919050565b82818337600083830152505050565b60005b838110156117d45780820151818401526020810190506117b9565b838111156117e3576000848401525b50505050565b6000600282049050600182168061180157607f821691505b602082108114156118155761181461187b565b5b50919050565b611824826118f7565b810181811067ffffffffffffffff82111715611843576118426118aa565b5b80604052505050565b7f4e487b7100000000000000000000000000000000000000000000000000000000600052601160045260246000fd5b7f4e487b7100000000000000000000000000000000000000000000000000000000600052602260045260246000fd5b7f4e487b7100000000000000000000000000000000000000000000000000000000600052604160045260246000fd5b600080fd5b600080fd5b600080fd5b600080fd5b600080fd5b600080fd5b6000601f19601f8301169050919050565b7f437573746f6d6572206e6f7420726567697374657265642120506c656173652060008201527f7265676973746572206669727374210000000000000000000000000000000000602082015250565b7f4e6f207468697320747970652773206361727320617661696c61626c65206e6f60008201527f7721000000000000000000000000000000000000000000000000000000000000602082015250565b7f4f6e6c79204142432063616e2061646420636172732100000000000000000000600082015250565b7f4465706f736974206973206e6f7420656e6f75676821204465706f736974207360008201527f686f756c65206265206c6172676572207468616e207072696365202b2028782060208201527f2b203129202a206d6f6e74686c7952656e740000000000000000000000000000604082015250565b611a4d81611755565b8114611a5857600080fd5b50565b611a648161179d565b8114611a6f57600080fd5b5056fea26469706673582212206d75218f16625e821ba7a07f3257ae4bbd4fd5098151bc12edc126147392177064736f6c63430008070033",
			"opcodes": "PUSH1 0x80 PUSH1 0x40 MSTORE PUSH1 0x1 PUSH1 0x5 SSTORE PUSH1 0x1 PUSH1 0x7 SSTORE PUSH1 0x1 PUSH1 0x9 SSTORE CALLVALUE DUP1 ISZERO PUSH2 0x1F JUMPI PUSH1 0x0 DUP1 REVERT JUMPDEST POP CALLER PUSH1 0x0 DUP1 PUSH2 0x100 EXP DUP2 SLOAD DUP2 PUSH20 0xFFFFFFFFFFFFFFFFFFFFFFFFFFFFFFFFFFFFFFFF MUL NOT AND SWAP1 DUP4 PUSH20 0xFFFFFFFFFFFFFFFFFFFFFFFFFFFFFFFFFFFFFFFF AND MUL OR SWAP1 SSTORE POP PUSH2 0x1AA8 DUP1 PUSH2 0x6F PUSH1 0x0 CODECOPY PUSH1 0x0 RETURN INVALID PUSH1 0x80 PUSH1 0x40 MSTORE PUSH1 0x4 CALLDATASIZE LT PUSH2 0xDC JUMPI PUSH1 0x0 CALLDATALOAD PUSH1 0xE0 SHR DUP1 PUSH4 0x9532007A GT PUSH2 0x7F JUMPI DUP1 PUSH4 0xC87DEC7A GT PUSH2 0x59 JUMPI DUP1 PUSH4 0xC87DEC7A EQ PUSH2 0x30B JUMPI DUP1 PUSH4 0xCB2ACD80 EQ PUSH2 0x348 JUMPI DUP1 PUSH4 0xD05A0447 EQ PUSH2 0x38B JUMPI DUP1 PUSH4 0xE4962463 EQ PUSH2 0x3B6 JUMPI PUSH2 0xDC JUMP JUMPDEST DUP1 PUSH4 0x9532007A EQ PUSH2 0x263 JUMPI DUP1 PUSH4 0xAA3250FA EQ PUSH2 0x28E JUMPI DUP1 PUSH4 0xB027A759 EQ PUSH2 0x2CB JUMPI PUSH2 0xDC JUMP JUMPDEST DUP1 PUSH4 0x38266FE5 GT PUSH2 0xBB JUMPI DUP1 PUSH4 0x38266FE5 EQ PUSH2 0x17B JUMPI DUP1 PUSH4 0x3A8C0E6E EQ PUSH2 0x1B8 JUMPI DUP1 PUSH4 0x5177D6D2 EQ PUSH2 0x1FB JUMPI DUP1 PUSH4 0x586FA64D EQ PUSH2 0x226 JUMPI PUSH2 0xDC JUMP JUMPDEST DUP1 PUSH3 0x1E4C44 EQ PUSH2 0xE1 JUMPI DUP1 PUSH4 0x1049F50A EQ PUSH2 0x10C JUMPI DUP1 PUSH4 0x23786469 EQ PUSH2 0x14B JUMPI JUMPDEST PUSH1 0x0 DUP1 REVERT JUMPDEST CALLVALUE DUP1 ISZERO PUSH2 0xED JUMPI PUSH1 0x0 DUP1 REVERT JUMPDEST POP PUSH2 0xF6 PUSH2 0x3E1 JUMP JUMPDEST PUSH1 0x40 MLOAD PUSH2 0x103 SWAP2 SWAP1 PUSH2 0x1497 JUMP JUMPDEST PUSH1 0x40 MLOAD DUP1 SWAP2 SUB SWAP1 RETURN JUMPDEST CALLVALUE DUP1 ISZERO PUSH2 0x118 JUMPI PUSH1 0x0 DUP1 REVERT JUMPDEST POP PUSH2 0x133 PUSH1 0x4 DUP1 CALLDATASIZE SUB DUP2 ADD SWAP1 PUSH2 0x12E SWAP2 SWAP1 PUSH2 0x10CA JUMP JUMPDEST PUSH2 0x3E7 JUMP JUMPDEST PUSH1 0x40 MLOAD PUSH2 0x142 SWAP4 SWAP3 SWAP2 SWAP1 PUSH2 0x13B7 JUMP JUMPDEST PUSH1 0x40 MLOAD DUP1 SWAP2 SUB SWAP1 RETURN JUMPDEST PUSH2 0x165 PUSH1 0x4 DUP1 CALLDATASIZE SUB DUP2 ADD SWAP1 PUSH2 0x160 SWAP2 SWAP1 PUSH2 0xFCE JUMP JUMPDEST PUSH2 0x4AF JUMP JUMPDEST PUSH1 0x40 MLOAD PUSH2 0x172 SWAP2 SWAP1 PUSH2 0x1475 JUMP JUMPDEST PUSH1 0x40 MLOAD DUP1 SWAP2 SUB SWAP1 RETURN JUMPDEST CALLVALUE DUP1 ISZERO PUSH2 0x187 JUMPI PUSH1 0x0 DUP1 REVERT JUMPDEST POP PUSH2 0x1A2 PUSH1 0x4 DUP1 CALLDATASIZE SUB DUP2 ADD SWAP1 PUSH2 0x19D SWAP2 SWAP1 PUSH2 0xF72 JUMP JUMPDEST PUSH2 0x8BA JUMP JUMPDEST PUSH1 0x40 MLOAD PUSH2 0x1AF SWAP2 SWAP1 PUSH2 0x1497 JUMP JUMPDEST PUSH1 0x40 MLOAD DUP1 SWAP2 SUB SWAP1 RETURN JUMPDEST CALLVALUE DUP1 ISZERO PUSH2 0x1C4 JUMPI PUSH1 0x0 DUP1 REVERT JUMPDEST POP PUSH2 0x1DF PUSH1 0x4 DUP1 CALLDATASIZE SUB DUP2 ADD SWAP1 PUSH2 0x1DA SWAP2 SWAP1 PUSH2 0x1113 JUMP JUMPDEST PUSH2 0x8F5 JUMP JUMPDEST PUSH1 0x40 MLOAD PUSH2 0x1F2 SWAP8 SWAP7 SWAP6 SWAP5 SWAP4 SWAP3 SWAP2 SWAP1 PUSH2 0x1528 JUMP JUMPDEST PUSH1 0x40 MLOAD DUP1 SWAP2 SUB SWAP1 RETURN JUMPDEST CALLVALUE DUP1 ISZERO PUSH2 0x207 JUMPI PUSH1 0x0 DUP1 REVERT JUMPDEST POP PUSH2 0x210 PUSH2 0x9DF JUMP JUMPDEST PUSH1 0x40 MLOAD PUSH2 0x21D SWAP2 SWAP1 PUSH2 0x1497 JUMP JUMPDEST PUSH1 0x40 MLOAD DUP1 SWAP2 SUB SWAP1 RETURN JUMPDEST CALLVALUE DUP1 ISZERO PUSH2 0x232 JUMPI PUSH1 0x0 DUP1 REVERT JUMPDEST POP PUSH2 0x24D PUSH1 0x4 DUP1 CALLDATASIZE SUB DUP2 ADD SWAP1 PUSH2 0x248 SWAP2 SWAP1 PUSH2 0x10CA JUMP JUMPDEST PUSH2 0x9E5 JUMP JUMPDEST PUSH1 0x40 MLOAD PUSH2 0x25A SWAP2 SWAP1 PUSH2 0x1497 JUMP JUMPDEST PUSH1 0x40 MLOAD DUP1 SWAP2 SUB SWAP1 RETURN JUMPDEST CALLVALUE DUP1 ISZERO PUSH2 0x26F JUMPI PUSH1 0x0 DUP1 REVERT JUMPDEST POP PUSH2 0x278 PUSH2 0xA13 JUMP JUMPDEST PUSH1 0x40 MLOAD PUSH2 0x285 SWAP2 SWAP1 PUSH2 0x1497 JUMP JUMPDEST PUSH1 0x40 MLOAD DUP1 SWAP2 SUB SWAP1 RETURN JUMPDEST CALLVALUE DUP1 ISZERO PUSH2 0x29A JUMPI PUSH1 0x0 DUP1 REVERT JUMPDEST POP PUSH2 0x2B5 PUSH1 0x4 DUP1 CALLDATASIZE SUB DUP2 ADD SWAP1 PUSH2 0x2B0 SWAP2 SWAP1 PUSH2 0x1042 JUMP JUMPDEST PUSH2 0xA19 JUMP JUMPDEST PUSH1 0x40 MLOAD PUSH2 0x2C2 SWAP2 SWAP1 PUSH2 0x139C JUMP JUMPDEST PUSH1 0x40 MLOAD DUP1 SWAP2 SUB SWAP1 RETURN JUMPDEST CALLVALUE DUP1 ISZERO PUSH2 0x2D7 JUMPI PUSH1 0x0 DUP1 REVERT JUMPDEST POP PUSH2 0x2F2 PUSH1 0x4 DUP1 CALLDATASIZE SUB DUP2 ADD SWAP1 PUSH2 0x2ED SWAP2 SWAP1 PUSH2 0x1113 JUMP JUMPDEST PUSH2 0xBA1 JUMP JUMPDEST PUSH1 0x40 MLOAD PUSH2 0x302 SWAP5 SWAP4 SWAP3 SWAP2 SWAP1 PUSH2 0x159E JUMP JUMPDEST PUSH1 0x40 MLOAD DUP1 SWAP2 SUB SWAP1 RETURN JUMPDEST CALLVALUE DUP1 ISZERO PUSH2 0x317 JUMPI PUSH1 0x0 DUP1 REVERT JUMPDEST POP PUSH2 0x332 PUSH1 0x4 DUP1 CALLDATASIZE SUB DUP2 ADD SWAP1 PUSH2 0x32D SWAP2 SWAP1 PUSH2 0xF45 JUMP JUMPDEST PUSH2 0xBD1 JUMP JUMPDEST PUSH1 0x40 MLOAD PUSH2 0x33F SWAP2 SWAP1 PUSH2 0x139C JUMP JUMPDEST PUSH1 0x40 MLOAD DUP1 SWAP2 SUB SWAP1 RETURN JUMPDEST CALLVALUE DUP1 ISZERO PUSH2 0x354 JUMPI PUSH1 0x0 DUP1 REVERT JUMPDEST POP PUSH2 0x36F PUSH1 0x4 DUP1 CALLDATASIZE SUB DUP2 ADD SWAP1 PUSH2 0x36A SWAP2 SWAP1 PUSH2 0x1113 JUMP JUMPDEST PUSH2 0xBF1 JUMP JUMPDEST PUSH1 0x40 MLOAD PUSH2 0x382 SWAP8 SWAP7 SWAP6 SWAP5 SWAP4 SWAP3 SWAP2 SWAP1 PUSH2 0x14B2 JUMP JUMPDEST PUSH1 0x40 MLOAD DUP1 SWAP2 SUB SWAP1 RETURN JUMPDEST CALLVALUE DUP1 ISZERO PUSH2 0x397 JUMPI PUSH1 0x0 DUP1 REVERT JUMPDEST POP PUSH2 0x3A0 PUSH2 0xCDB JUMP JUMPDEST PUSH1 0x40 MLOAD PUSH2 0x3AD SWAP2 SWAP1 PUSH2 0x1381 JUMP JUMPDEST PUSH1 0x40 MLOAD DUP1 SWAP2 SUB SWAP1 RETURN JUMPDEST CALLVALUE DUP1 ISZERO PUSH2 0x3C2 JUMPI PUSH1 0x0 DUP1 REVERT JUMPDEST POP PUSH2 0x3CB PUSH2 0xCFF JUMP JUMPDEST PUSH1 0x40 MLOAD PUSH2 0x3D8 SWAP2 SWAP1 PUSH2 0x139C JUMP JUMPDEST PUSH1 0x40 MLOAD DUP1 SWAP2 SUB SWAP1 RETURN JUMPDEST PUSH1 0x9 SLOAD DUP2 JUMP JUMPDEST PUSH1 0x3 DUP2 DUP1 MLOAD PUSH1 0x20 DUP2 ADD DUP3 ADD DUP1 MLOAD DUP5 DUP3 MSTORE PUSH1 0x20 DUP4 ADD PUSH1 0x20 DUP6 ADD KECCAK256 DUP2 DUP4 MSTORE DUP1 SWAP6 POP POP POP POP POP POP PUSH1 0x0 SWAP2 POP SWAP1 POP DUP1 PUSH1 0x0 ADD DUP1 SLOAD PUSH2 0x420 SWAP1 PUSH2 0x17E9 JUMP JUMPDEST DUP1 PUSH1 0x1F ADD PUSH1 0x20 DUP1 SWAP2 DIV MUL PUSH1 0x20 ADD PUSH1 0x40 MLOAD SWAP1 DUP2 ADD PUSH1 0x40 MSTORE DUP1 SWAP3 SWAP2 SWAP1 DUP2 DUP2 MSTORE PUSH1 0x20 ADD DUP3 DUP1 SLOAD PUSH2 0x44C SWAP1 PUSH2 0x17E9 JUMP JUMPDEST DUP1 ISZERO PUSH2 0x499 JUMPI DUP1 PUSH1 0x1F LT PUSH2 0x46E JUMPI PUSH2 0x100 DUP1 DUP4 SLOAD DIV MUL DUP4 MSTORE SWAP2 PUSH1 0x20 ADD SWAP2 PUSH2 0x499 JUMP JUMPDEST DUP3 ADD SWAP2 SWAP1 PUSH1 0x0 MSTORE PUSH1 0x20 PUSH1 0x0 KECCAK256 SWAP1 JUMPDEST DUP2 SLOAD DUP2 MSTORE SWAP1 PUSH1 0x1 ADD SWAP1 PUSH1 0x20 ADD DUP1 DUP4 GT PUSH2 0x47C JUMPI DUP3 SWAP1 SUB PUSH1 0x1F AND DUP3 ADD SWAP2 JUMPDEST POP POP POP POP POP SWAP1 DUP1 PUSH1 0x1 ADD SLOAD SWAP1 DUP1 PUSH1 0x2 ADD SLOAD SWAP1 POP DUP4 JUMP JUMPDEST PUSH2 0x4B7 PUSH2 0xD5F JUMP JUMPDEST PUSH1 0x1 ISZERO ISZERO PUSH1 0x1 PUSH1 0x0 CALLER PUSH20 0xFFFFFFFFFFFFFFFFFFFFFFFFFFFFFFFFFFFFFFFF AND PUSH20 0xFFFFFFFFFFFFFFFFFFFFFFFFFFFFFFFFFFFFFFFF AND DUP2 MSTORE PUSH1 0x20 ADD SWAP1 DUP2 MSTORE PUSH1 0x20 ADD PUSH1 0x0 KECCAK256 PUSH1 0x0 SWAP1 SLOAD SWAP1 PUSH2 0x100 EXP SWAP1 DIV PUSH1 0xFF AND ISZERO ISZERO EQ PUSH2 0x54A JUMPI PUSH1 0x40 MLOAD PUSH32 0x8C379A000000000000000000000000000000000000000000000000000000000 DUP2 MSTORE PUSH1 0x4 ADD PUSH2 0x541 SWAP1 PUSH2 0x13F5 JUMP JUMPDEST PUSH1 0x40 MLOAD DUP1 SWAP2 SUB SWAP1 REVERT JUMPDEST PUSH1 0x0 PUSH1 0x4 DUP7 DUP7 PUSH1 0x40 MLOAD PUSH2 0x55E SWAP3 SWAP2 SWAP1 PUSH2 0x1368 JUMP JUMPDEST SWAP1 DUP2 MSTORE PUSH1 0x20 ADD PUSH1 0x40 MLOAD DUP1 SWAP2 SUB SWAP1 KECCAK256 SLOAD GT PUSH2 0x5AD JUMPI PUSH1 0x40 MLOAD PUSH32 0x8C379A000000000000000000000000000000000000000000000000000000000 DUP2 MSTORE PUSH1 0x4 ADD PUSH2 0x5A4 SWAP1 PUSH2 0x1415 JUMP JUMPDEST PUSH1 0x40 MLOAD DUP1 SWAP2 SUB SWAP1 REVERT JUMPDEST PUSH1 0x3 DUP6 DUP6 PUSH1 0x40 MLOAD PUSH2 0x5BF SWAP3 SWAP2 SWAP1 PUSH2 0x1368 JUMP JUMPDEST SWAP1 DUP2 MSTORE PUSH1 0x20 ADD PUSH1 0x40 MLOAD DUP1 SWAP2 SUB SWAP1 KECCAK256 PUSH1 0x2 ADD SLOAD PUSH1 0x1 DUP5 PUSH2 0x5DE SWAP2 SWAP1 PUSH2 0x1671 JUMP JUMPDEST PUSH2 0x5E8 SWAP2 SWAP1 PUSH2 0x16C7 JUMP JUMPDEST PUSH1 0x3 DUP7 DUP7 PUSH1 0x40 MLOAD PUSH2 0x5FA SWAP3 SWAP2 SWAP1 PUSH2 0x1368 JUMP JUMPDEST SWAP1 DUP2 MSTORE PUSH1 0x20 ADD PUSH1 0x40 MLOAD DUP1 SWAP2 SUB SWAP1 KECCAK256 PUSH1 0x1 ADD SLOAD PUSH2 0x616 SWAP2 SWAP1 PUSH2 0x1671 JUMP JUMPDEST DUP3 LT ISZERO PUSH2 0x658 JUMPI PUSH1 0x40 MLOAD PUSH32 0x8C379A000000000000000000000000000000000000000000000000000000000 DUP2 MSTORE PUSH1 0x4 ADD PUSH2 0x64F SWAP1 PUSH2 0x1455 JUMP JUMPDEST PUSH1 0x40 MLOAD DUP1 SWAP2 SUB SWAP1 REVERT JUMPDEST PUSH1 0x1 PUSH1 0x2 PUSH1 0x0 CALLER PUSH20 0xFFFFFFFFFFFFFFFFFFFFFFFFFFFFFFFFFFFFFFFF AND PUSH20 0xFFFFFFFFFFFFFFFFFFFFFFFFFFFFFFFFFFFFFFFF AND DUP2 MSTORE PUSH1 0x20 ADD SWAP1 DUP2 MSTORE PUSH1 0x20 ADD PUSH1 0x0 KECCAK256 DUP7 DUP7 PUSH1 0x40 MLOAD PUSH2 0x6A9 SWAP3 SWAP2 SWAP1 PUSH2 0x1368 JUMP JUMPDEST SWAP1 DUP2 MSTORE PUSH1 0x20 ADD PUSH1 0x40 MLOAD DUP1 SWAP2 SUB SWAP1 KECCAK256 PUSH1 0x0 DUP3 DUP3 SLOAD PUSH2 0x6C6 SWAP2 SWAP1 PUSH2 0x1671 JUMP JUMPDEST SWAP3 POP POP DUP2 SWAP1 SSTORE POP PUSH1 0x1 PUSH1 0x4 DUP7 DUP7 PUSH1 0x40 MLOAD PUSH2 0x6E1 SWAP3 SWAP2 SWAP1 PUSH2 0x1368 JUMP JUMPDEST SWAP1 DUP2 MSTORE PUSH1 0x20 ADD PUSH1 0x40 MLOAD DUP1 SWAP2 SUB SWAP1 KECCAK256 PUSH1 0x0 DUP3 DUP3 SLOAD PUSH2 0x6FE SWAP2 SWAP1 PUSH2 0x1721 JUMP JUMPDEST SWAP3 POP POP DUP2 SWAP1 SSTORE POP PUSH1 0x0 PUSH1 0x40 MLOAD DUP1 PUSH1 0xE0 ADD PUSH1 0x40 MSTORE DUP1 PUSH1 0x5 SLOAD DUP2 MSTORE PUSH1 0x20 ADD CALLER PUSH20 0xFFFFFFFFFFFFFFFFFFFFFFFFFFFFFFFFFFFFFFFF AND DUP2 MSTORE PUSH1 0x20 ADD DUP8 DUP8 DUP1 DUP1 PUSH1 0x1F ADD PUSH1 0x20 DUP1 SWAP2 DIV MUL PUSH1 0x20 ADD PUSH1 0x40 MLOAD SWAP1 DUP2 ADD PUSH1 0x40 MSTORE DUP1 SWAP4 SWAP3 SWAP2 SWAP1 DUP2 DUP2 MSTORE PUSH1 0x20 ADD DUP4 DUP4 DUP1 DUP3 DUP5 CALLDATACOPY PUSH1 0x0 DUP2 DUP5 ADD MSTORE PUSH1 0x1F NOT PUSH1 0x1F DUP3 ADD AND SWAP1 POP DUP1 DUP4 ADD SWAP3 POP POP POP POP POP POP POP DUP2 MSTORE PUSH1 0x20 ADD DUP6 DUP2 MSTORE PUSH1 0x20 ADD DUP5 DUP2 MSTORE PUSH1 0x20 ADD TIMESTAMP DUP2 MSTORE PUSH1 0x20 ADD PUSH32 0xFFFFFFFFFFFFFFFFFFFFFFFFFFFFFFFFFFFFFFFFFFFFFFFFFFFFFFFFFFFFFFFF DUP2 MSTORE POP SWAP1 POP DUP1 PUSH1 0x6 PUSH1 0x0 PUSH1 0x5 SLOAD DUP2 MSTORE PUSH1 0x20 ADD SWAP1 DUP2 MSTORE PUSH1 0x20 ADD PUSH1 0x0 KECCAK256 PUSH1 0x0 DUP3 ADD MLOAD DUP2 PUSH1 0x0 ADD SSTORE PUSH1 0x20 DUP3 ADD MLOAD DUP2 PUSH1 0x1 ADD PUSH1 0x0 PUSH2 0x100 EXP DUP2 SLOAD DUP2 PUSH20 0xFFFFFFFFFFFFFFFFFFFFFFFFFFFFFFFFFFFFFFFF MUL NOT AND SWAP1 DUP4 PUSH20 0xFFFFFFFFFFFFFFFFFFFFFFFFFFFFFFFFFFFFFFFF AND MUL OR SWAP1 SSTORE POP PUSH1 0x40 DUP3 ADD MLOAD DUP2 PUSH1 0x2 ADD SWAP1 DUP1 MLOAD SWAP1 PUSH1 0x20 ADD SWAP1 PUSH2 0x83B SWAP3 SWAP2 SWAP1 PUSH2 0xDB2 JUMP JUMPDEST POP PUSH1 0x60 DUP3 ADD MLOAD DUP2 PUSH1 0x3 ADD SSTORE PUSH1 0x80 DUP3 ADD MLOAD DUP2 PUSH1 0x4 ADD SSTORE PUSH1 0xA0 DUP3 ADD MLOAD DUP2 PUSH1 0x5 ADD SSTORE PUSH1 0xC0 DUP3 ADD MLOAD DUP2 PUSH1 0x6 ADD SSTORE SWAP1 POP POP ADDRESS PUSH20 0xFFFFFFFFFFFFFFFFFFFFFFFFFFFFFFFFFFFFFFFF AND PUSH2 0x8FC DUP5 SWAP1 DUP2 ISZERO MUL SWAP1 PUSH1 0x40 MLOAD PUSH1 0x0 PUSH1 0x40 MLOAD DUP1 DUP4 SUB DUP2 DUP6 DUP9 DUP9 CALL SWAP4 POP POP POP POP ISZERO DUP1 ISZERO PUSH2 0x8AD JUMPI RETURNDATASIZE PUSH1 0x0 DUP1 RETURNDATACOPY RETURNDATASIZE PUSH1 0x0 REVERT JUMPDEST POP DUP1 SWAP2 POP POP SWAP5 SWAP4 POP POP POP POP JUMP JUMPDEST PUSH1 0x2 PUSH1 0x20 MSTORE DUP2 PUSH1 0x0 MSTORE PUSH1 0x40 PUSH1 0x0 KECCAK256 DUP2 DUP1 MLOAD PUSH1 0x20 DUP2 ADD DUP3 ADD DUP1 MLOAD DUP5 DUP3 MSTORE PUSH1 0x20 DUP4 ADD PUSH1 0x20 DUP6 ADD KECCAK256 DUP2 DUP4 MSTORE DUP1 SWAP6 POP POP POP POP POP POP PUSH1 0x0 SWAP2 POP SWAP2 POP POP SLOAD DUP2 JUMP JUMPDEST PUSH1 0x8 PUSH1 0x20 MSTORE DUP1 PUSH1 0x0 MSTORE PUSH1 0x40 PUSH1 0x0 KECCAK256 PUSH1 0x0 SWAP2 POP SWAP1 POP DUP1 PUSH1 0x0 ADD SLOAD SWAP1 DUP1 PUSH1 0x1 ADD SLOAD SWAP1 DUP1 PUSH1 0x2 ADD PUSH1 0x0 SWAP1 SLOAD SWAP1 PUSH2 0x100 EXP SWAP1 DIV PUSH20 0xFFFFFFFFFFFFFFFFFFFFFFFFFFFFFFFFFFFFFFFF AND SWAP1 DUP1 PUSH1 0x3 ADD DUP1 SLOAD PUSH2 0x94A SWAP1 PUSH2 0x17E9 JUMP JUMPDEST DUP1 PUSH1 0x1F ADD PUSH1 0x20 DUP1 SWAP2 DIV MUL PUSH1 0x20 ADD PUSH1 0x40 MLOAD SWAP1 DUP2 ADD PUSH1 0x40 MSTORE DUP1 SWAP3 SWAP2 SWAP1 DUP2 DUP2 MSTORE PUSH1 0x20 ADD DUP3 DUP1 SLOAD PUSH2 0x976 SWAP1 PUSH2 0x17E9 JUMP JUMPDEST DUP1 ISZERO PUSH2 0x9C3 JUMPI DUP1 PUSH1 0x1F LT PUSH2 0x998 JUMPI PUSH2 0x100 DUP1 DUP4 SLOAD DIV MUL DUP4 MSTORE SWAP2 PUSH1 0x20 ADD SWAP2 PUSH2 0x9C3 JUMP JUMPDEST DUP3 ADD SWAP2 SWAP1 PUSH1 0x0 MSTORE PUSH1 0x20 PUSH1 0x0 KECCAK256 SWAP1 JUMPDEST DUP2 SLOAD DUP2 MSTORE SWAP1 PUSH1 0x1 ADD SWAP1 PUSH1 0x20 ADD DUP1 DUP4 GT PUSH2 0x9A6 JUMPI DUP3 SWAP1 SUB PUSH1 0x1F AND DUP3 ADD SWAP2 JUMPDEST POP POP POP POP POP SWAP1 DUP1 PUSH1 0x4 ADD SLOAD SWAP1 DUP1 PUSH1 0x5 ADD SLOAD SWAP1 DUP1 PUSH1 0x6 ADD SLOAD SWAP1 POP DUP8 JUMP JUMPDEST PUSH1 0x7 SLOAD DUP2 JUMP JUMPDEST PUSH1 0x4 DUP2 DUP1 MLOAD PUSH1 0x20 DUP2 ADD DUP3 ADD DUP1 MLOAD DUP5 DUP3 MSTORE PUSH1 0x20 DUP4 ADD PUSH1 0x20 DUP6 ADD KECCAK256 DUP2 DUP4 MSTORE DUP1 SWAP6 POP POP POP POP POP POP PUSH1 0x0 SWAP2 POP SWAP1 POP SLOAD DUP2 JUMP JUMPDEST PUSH1 0x5 SLOAD DUP2 JUMP JUMPDEST PUSH1 0x0 DUP1 PUSH1 0x0 SWAP1 SLOAD SWAP1 PUSH2 0x100 EXP SWAP1 DIV PUSH20 0xFFFFFFFFFFFFFFFFFFFFFFFFFFFFFFFFFFFFFFFF AND PUSH20 0xFFFFFFFFFFFFFFFFFFFFFFFFFFFFFFFFFFFFFFFF AND CALLER PUSH20 0xFFFFFFFFFFFFFFFFFFFFFFFFFFFFFFFFFFFFFFFF AND EQ PUSH2 0xAAA JUMPI PUSH1 0x40 MLOAD PUSH32 0x8C379A000000000000000000000000000000000000000000000000000000000 DUP2 MSTORE PUSH1 0x4 ADD PUSH2 0xAA1 SWAP1 PUSH2 0x1435 JUMP JUMPDEST PUSH1 0x40 MLOAD DUP1 SWAP2 SUB SWAP1 REVERT JUMPDEST PUSH1 0x40 MLOAD DUP1 PUSH1 0x60 ADD PUSH1 0x40 MSTORE DUP1 DUP8 DUP8 DUP1 DUP1 PUSH1 0x1F ADD PUSH1 0x20 DUP1 SWAP2 DIV MUL PUSH1 0x20 ADD PUSH1 0x40 MLOAD SWAP1 DUP2 ADD PUSH1 0x40 MSTORE DUP1 SWAP4 SWAP3 SWAP2 SWAP1 DUP2 DUP2 MSTORE PUSH1 0x20 ADD DUP4 DUP4 DUP1 DUP3 DUP5 CALLDATACOPY PUSH1 0x0 DUP2 DUP5 ADD MSTORE PUSH1 0x1F NOT PUSH1 0x1F DUP3 ADD AND SWAP1 POP DUP1 DUP4 ADD SWAP3 POP POP POP POP POP POP POP DUP2 MSTORE PUSH1 0x20 ADD DUP6 DUP2 MSTORE PUSH1 0x20 ADD DUP5 DUP2 MSTORE POP PUSH1 0x3 DUP8 DUP8 PUSH1 0x40 MLOAD PUSH2 0xB1B SWAP3 SWAP2 SWAP1 PUSH2 0x1368 JUMP JUMPDEST SWAP1 DUP2 MSTORE PUSH1 0x20 ADD PUSH1 0x40 MLOAD DUP1 SWAP2 SUB SWAP1 KECCAK256 PUSH1 0x0 DUP3 ADD MLOAD DUP2 PUSH1 0x0 ADD SWAP1 DUP1 MLOAD SWAP1 PUSH1 0x20 ADD SWAP1 PUSH2 0xB45 SWAP3 SWAP2 SWAP1 PUSH2 0xDB2 JUMP JUMPDEST POP PUSH1 0x20 DUP3 ADD MLOAD DUP2 PUSH1 0x1 ADD SSTORE PUSH1 0x40 DUP3 ADD MLOAD DUP2 PUSH1 0x2 ADD SSTORE SWAP1 POP POP DUP2 PUSH1 0x4 DUP8 DUP8 PUSH1 0x40 MLOAD PUSH2 0xB70 SWAP3 SWAP2 SWAP1 PUSH2 0x1368 JUMP JUMPDEST SWAP1 DUP2 MSTORE PUSH1 0x20 ADD PUSH1 0x40 MLOAD DUP1 SWAP2 SUB SWAP1 KECCAK256 PUSH1 0x0 DUP3 DUP3 SLOAD PUSH2 0xB8D SWAP2 SWAP1 PUSH2 0x1671 JUMP JUMPDEST SWAP3 POP POP DUP2 SWAP1 SSTORE POP PUSH1 0x1 SWAP1 POP SWAP6 SWAP5 POP POP POP POP POP JUMP JUMPDEST PUSH1 0xA PUSH1 0x20 MSTORE DUP1 PUSH1 0x0 MSTORE PUSH1 0x40 PUSH1 0x0 KECCAK256 PUSH1 0x0 SWAP2 POP SWAP1 POP DUP1 PUSH1 0x0 ADD SLOAD SWAP1 DUP1 PUSH1 0x1 ADD SLOAD SWAP1 DUP1 PUSH1 0x2 ADD SLOAD SWAP1 DUP1 PUSH1 0x3 ADD SLOAD SWAP1 POP DUP5 JUMP JUMPDEST PUSH1 0x1 PUSH1 0x20 MSTORE DUP1 PUSH1 0x0 MSTORE PUSH1 0x40 PUSH1 0x0 KECCAK256 PUSH1 0x0 SWAP2 POP SLOAD SWAP1 PUSH2 0x100 EXP SWAP1 DIV PUSH1 0xFF AND DUP2 JUMP JUMPDEST PUSH1 0x6 PUSH1 0x20 MSTORE DUP1 PUSH1 0x0 MSTORE PUSH1 0x40 PUSH1 0x0 KECCAK256 PUSH1 0x0 SWAP2 POP SWAP1 POP DUP1 PUSH1 0x0 ADD SLOAD SWAP1 DUP1 PUSH1 0x1 ADD PUSH1 0x0 SWAP1 SLOAD SWAP1 PUSH2 0x100 EXP SWAP1 DIV PUSH20 0xFFFFFFFFFFFFFFFFFFFFFFFFFFFFFFFFFFFFFFFF AND SWAP1 DUP1 PUSH1 0x2 ADD DUP1 SLOAD PUSH2 0xC40 SWAP1 PUSH2 0x17E9 JUMP JUMPDEST DUP1 PUSH1 0x1F ADD PUSH1 0x20 DUP1 SWAP2 DIV MUL PUSH1 0x20 ADD PUSH1 0x40 MLOAD SWAP1 DUP2 ADD PUSH1 0x40 MSTORE DUP1 SWAP3 SWAP2 SWAP1 DUP2 DUP2 MSTORE PUSH1 0x20 ADD DUP3 DUP1 SLOAD PUSH2 0xC6C SWAP1 PUSH2 0x17E9 JUMP JUMPDEST DUP1 ISZERO PUSH2 0xCB9 JUMPI DUP1 PUSH1 0x1F LT PUSH2 0xC8E JUMPI PUSH2 0x100 DUP1 DUP4 SLOAD DIV MUL DUP4 MSTORE SWAP2 PUSH1 0x20 ADD SWAP2 PUSH2 0xCB9 JUMP JUMPDEST DUP3 ADD SWAP2 SWAP1 PUSH1 0x0 MSTORE PUSH1 0x20 PUSH1 0x0 KECCAK256 SWAP1 JUMPDEST DUP2 SLOAD DUP2 MSTORE SWAP1 PUSH1 0x1 ADD SWAP1 PUSH1 0x20 ADD DUP1 DUP4 GT PUSH2 0xC9C JUMPI DUP3 SWAP1 SUB PUSH1 0x1F AND DUP3 ADD SWAP2 JUMPDEST POP POP POP POP POP SWAP1 DUP1 PUSH1 0x3 ADD SLOAD SWAP1 DUP1 PUSH1 0x4 ADD SLOAD SWAP1 DUP1 PUSH1 0x5 ADD SLOAD SWAP1 DUP1 PUSH1 0x6 ADD SLOAD SWAP1 POP DUP8 JUMP JUMPDEST PUSH1 0x0 DUP1 SLOAD SWAP1 PUSH2 0x100 EXP SWAP1 DIV PUSH20 0xFFFFFFFFFFFFFFFFFFFFFFFFFFFFFFFFFFFFFFFF AND DUP2 JUMP JUMPDEST PUSH1 0x0 PUSH1 0x1 DUP1 PUSH1 0x0 CALLER PUSH20 0xFFFFFFFFFFFFFFFFFFFFFFFFFFFFFFFFFFFFFFFF AND PUSH20 0xFFFFFFFFFFFFFFFFFFFFFFFFFFFFFFFFFFFFFFFF AND DUP2 MSTORE PUSH1 0x20 ADD SWAP1 DUP2 MSTORE PUSH1 0x20 ADD PUSH1 0x0 KECCAK256 PUSH1 0x0 PUSH2 0x100 EXP DUP2 SLOAD DUP2 PUSH1 0xFF MUL NOT AND SWAP1 DUP4 ISZERO ISZERO MUL OR SWAP1 SSTORE POP PUSH1 0x1 SWAP1 POP SWAP1 JUMP JUMPDEST PUSH1 0x40 MLOAD DUP1 PUSH1 0xE0 ADD PUSH1 0x40 MSTORE DUP1 PUSH1 0x0 DUP2 MSTORE PUSH1 0x20 ADD PUSH1 0x0 PUSH20 0xFFFFFFFFFFFFFFFFFFFFFFFFFFFFFFFFFFFFFFFF AND DUP2 MSTORE PUSH1 0x20 ADD PUSH1 0x60 DUP2 MSTORE PUSH1 0x20 ADD PUSH1 0x0 DUP2 MSTORE PUSH1 0x20 ADD PUSH1 0x0 DUP2 MSTORE PUSH1 0x20 ADD PUSH1 0x0 DUP2 MSTORE PUSH1 0x20 ADD PUSH1 0x0 DUP2 MSTORE POP SWAP1 JUMP JUMPDEST DUP3 DUP1 SLOAD PUSH2 0xDBE SWAP1 PUSH2 0x17E9 JUMP JUMPDEST SWAP1 PUSH1 0x0 MSTORE PUSH1 0x20 PUSH1 0x0 KECCAK256 SWAP1 PUSH1 0x1F ADD PUSH1 0x20 SWAP1 DIV DUP2 ADD SWAP3 DUP3 PUSH2 0xDE0 JUMPI PUSH1 0x0 DUP6 SSTORE PUSH2 0xE27 JUMP JUMPDEST DUP3 PUSH1 0x1F LT PUSH2 0xDF9 JUMPI DUP1 MLOAD PUSH1 0xFF NOT AND DUP4 DUP1 ADD OR DUP6 SSTORE PUSH2 0xE27 JUMP JUMPDEST DUP3 DUP1 ADD PUSH1 0x1 ADD DUP6 SSTORE DUP3 ISZERO PUSH2 0xE27 JUMPI SWAP2 DUP3 ADD JUMPDEST DUP3 DUP2 GT ISZERO PUSH2 0xE26 JUMPI DUP3 MLOAD DUP3 SSTORE SWAP2 PUSH1 0x20 ADD SWAP2 SWAP1 PUSH1 0x1 ADD SWAP1 PUSH2 0xE0B JUMP JUMPDEST JUMPDEST POP SWAP1 POP PUSH2 0xE34 SWAP2 SWAP1 PUSH2 0xE38 JUMP JUMPDEST POP SWAP1 JUMP JUMPDEST JUMPDEST DUP1 DUP3 GT ISZERO PUSH2 0xE51 JUMPI PUSH1 0x0 DUP2 PUSH1 0x0 SWAP1 SSTORE POP PUSH1 0x1 ADD PUSH2 0xE39 JUMP JUMPDEST POP SWAP1 JUMP JUMPDEST PUSH1 0x0 PUSH2 0xE68 PUSH2 0xE63 DUP5 PUSH2 0x1608 JUMP JUMPDEST PUSH2 0x15E3 JUMP JUMPDEST SWAP1 POP DUP3 DUP2 MSTORE PUSH1 0x20 DUP2 ADD DUP5 DUP5 DUP5 ADD GT ISZERO PUSH2 0xE84 JUMPI PUSH2 0xE83 PUSH2 0x18E8 JUMP JUMPDEST JUMPDEST PUSH2 0xE8F DUP5 DUP3 DUP6 PUSH2 0x17A7 JUMP JUMPDEST POP SWAP4 SWAP3 POP POP POP JUMP JUMPDEST PUSH1 0x0 DUP2 CALLDATALOAD SWAP1 POP PUSH2 0xEA6 DUP2 PUSH2 0x1A44 JUMP JUMPDEST SWAP3 SWAP2 POP POP JUMP JUMPDEST PUSH1 0x0 DUP1 DUP4 PUSH1 0x1F DUP5 ADD SLT PUSH2 0xEC2 JUMPI PUSH2 0xEC1 PUSH2 0x18DE JUMP JUMPDEST JUMPDEST DUP3 CALLDATALOAD SWAP1 POP PUSH8 0xFFFFFFFFFFFFFFFF DUP2 GT ISZERO PUSH2 0xEDF JUMPI PUSH2 0xEDE PUSH2 0x18D9 JUMP JUMPDEST JUMPDEST PUSH1 0x20 DUP4 ADD SWAP2 POP DUP4 PUSH1 0x1 DUP3 MUL DUP4 ADD GT ISZERO PUSH2 0xEFB JUMPI PUSH2 0xEFA PUSH2 0x18E3 JUMP JUMPDEST JUMPDEST SWAP3 POP SWAP3 SWAP1 POP JUMP JUMPDEST PUSH1 0x0 DUP3 PUSH1 0x1F DUP4 ADD SLT PUSH2 0xF17 JUMPI PUSH2 0xF16 PUSH2 0x18DE JUMP JUMPDEST JUMPDEST DUP2 CALLDATALOAD PUSH2 0xF27 DUP5 DUP3 PUSH1 0x20 DUP7 ADD PUSH2 0xE55 JUMP JUMPDEST SWAP2 POP POP SWAP3 SWAP2 POP POP JUMP JUMPDEST PUSH1 0x0 DUP2 CALLDATALOAD SWAP1 POP PUSH2 0xF3F DUP2 PUSH2 0x1A5B JUMP JUMPDEST SWAP3 SWAP2 POP POP JUMP JUMPDEST PUSH1 0x0 PUSH1 0x20 DUP3 DUP5 SUB SLT ISZERO PUSH2 0xF5B JUMPI PUSH2 0xF5A PUSH2 0x18F2 JUMP JUMPDEST JUMPDEST PUSH1 0x0 PUSH2 0xF69 DUP5 DUP3 DUP6 ADD PUSH2 0xE97 JUMP JUMPDEST SWAP2 POP POP SWAP3 SWAP2 POP POP JUMP JUMPDEST PUSH1 0x0 DUP1 PUSH1 0x40 DUP4 DUP6 SUB SLT ISZERO PUSH2 0xF89 JUMPI PUSH2 0xF88 PUSH2 0x18F2 JUMP JUMPDEST JUMPDEST PUSH1 0x0 PUSH2 0xF97 DUP6 DUP3 DUP7 ADD PUSH2 0xE97 JUMP JUMPDEST SWAP3 POP POP PUSH1 0x20 DUP4 ADD CALLDATALOAD PUSH8 0xFFFFFFFFFFFFFFFF DUP2 GT ISZERO PUSH2 0xFB8 JUMPI PUSH2 0xFB7 PUSH2 0x18ED JUMP JUMPDEST JUMPDEST PUSH2 0xFC4 DUP6 DUP3 DUP7 ADD PUSH2 0xF02 JUMP JUMPDEST SWAP2 POP POP SWAP3 POP SWAP3 SWAP1 POP JUMP JUMPDEST PUSH1 0x0 DUP1 PUSH1 0x0 DUP1 PUSH1 0x60 DUP6 DUP8 SUB SLT ISZERO PUSH2 0xFE8 JUMPI PUSH2 0xFE7 PUSH2 0x18F2 JUMP JUMPDEST JUMPDEST PUSH1 0x0 DUP6 ADD CALLDATALOAD PUSH8 0xFFFFFFFFFFFFFFFF DUP2 GT ISZERO PUSH2 0x1006 JUMPI PUSH2 0x1005 PUSH2 0x18ED JUMP JUMPDEST JUMPDEST PUSH2 0x1012 DUP8 DUP3 DUP9 ADD PUSH2 0xEAC JUMP JUMPDEST SWAP5 POP SWAP5 POP POP PUSH1 0x20 PUSH2 0x1025 DUP8 DUP3 DUP9 ADD PUSH2 0xF30 JUMP JUMPDEST SWAP3 POP POP PUSH1 0x40 PUSH2 0x1036 DUP8 DUP3 DUP9 ADD PUSH2 0xF30 JUMP JUMPDEST SWAP2 POP POP SWAP3 SWAP6 SWAP2 SWAP5 POP SWAP3 POP JUMP JUMPDEST PUSH1 0x0 DUP1 PUSH1 0x0 DUP1 PUSH1 0x0 PUSH1 0x80 DUP7 DUP9 SUB SLT ISZERO PUSH2 0x105E JUMPI PUSH2 0x105D PUSH2 0x18F2 JUMP JUMPDEST JUMPDEST PUSH1 0x0 DUP7 ADD CALLDATALOAD PUSH8 0xFFFFFFFFFFFFFFFF DUP2 GT ISZERO PUSH2 0x107C JUMPI PUSH2 0x107B PUSH2 0x18ED JUMP JUMPDEST JUMPDEST PUSH2 0x1088 DUP9 DUP3 DUP10 ADD PUSH2 0xEAC JUMP JUMPDEST SWAP6 POP SWAP6 POP POP PUSH1 0x20 PUSH2 0x109B DUP9 DUP3 DUP10 ADD PUSH2 0xF30 JUMP JUMPDEST SWAP4 POP POP PUSH1 0x40 PUSH2 0x10AC DUP9 DUP3 DUP10 ADD PUSH2 0xF30 JUMP JUMPDEST SWAP3 POP POP PUSH1 0x60 PUSH2 0x10BD DUP9 DUP3 DUP10 ADD PUSH2 0xF30 JUMP JUMPDEST SWAP2 POP POP SWAP3 SWAP6 POP SWAP3 SWAP6 SWAP1 SWAP4 POP JUMP JUMPDEST PUSH1 0x0 PUSH1 0x20 DUP3 DUP5 SUB SLT ISZERO PUSH2 0x10E0 JUMPI PUSH2 0x10DF PUSH2 0x18F2 JUMP JUMPDEST JUMPDEST PUSH1 0x0 DUP3 ADD CALLDATALOAD PUSH8 0xFFFFFFFFFFFFFFFF DUP2 GT ISZERO PUSH2 0x10FE JUMPI PUSH2 0x10FD PUSH2 0x18ED JUMP JUMPDEST JUMPDEST PUSH2 0x110A DUP5 DUP3 DUP6 ADD PUSH2 0xF02 JUMP JUMPDEST SWAP2 POP POP SWAP3 SWAP2 POP POP JUMP JUMPDEST PUSH1 0x0 PUSH1 0x20 DUP3 DUP5 SUB SLT ISZERO PUSH2 0x1129 JUMPI PUSH2 0x1128 PUSH2 0x18F2 JUMP JUMPDEST JUMPDEST PUSH1 0x0 PUSH2 0x1137 DUP5 DUP3 DUP6 ADD PUSH2 0xF30 JUMP JUMPDEST SWAP2 POP POP SWAP3 SWAP2 POP POP JUMP JUMPDEST PUSH2 0x1149 DUP2 PUSH2 0x1755 JUMP JUMPDEST DUP3 MSTORE POP POP JUMP JUMPDEST PUSH2 0x1158 DUP2 PUSH2 0x1755 JUMP JUMPDEST DUP3 MSTORE POP POP JUMP JUMPDEST PUSH2 0x1167 DUP2 PUSH2 0x1767 JUMP JUMPDEST DUP3 MSTORE POP POP JUMP JUMPDEST PUSH2 0x1176 DUP2 PUSH2 0x1773 JUMP JUMPDEST DUP3 MSTORE POP POP JUMP JUMPDEST PUSH2 0x1185 DUP2 PUSH2 0x1773 JUMP JUMPDEST DUP3 MSTORE POP POP JUMP JUMPDEST PUSH1 0x0 PUSH2 0x1197 DUP4 DUP6 PUSH2 0x1666 JUMP JUMPDEST SWAP4 POP PUSH2 0x11A4 DUP4 DUP6 DUP5 PUSH2 0x17A7 JUMP JUMPDEST DUP3 DUP5 ADD SWAP1 POP SWAP4 SWAP3 POP POP POP JUMP JUMPDEST PUSH1 0x0 PUSH2 0x11BB DUP3 PUSH2 0x1639 JUMP JUMPDEST PUSH2 0x11C5 DUP2 DUP6 PUSH2 0x1644 JUMP JUMPDEST SWAP4 POP PUSH2 0x11D5 DUP2 DUP6 PUSH1 0x20 DUP7 ADD PUSH2 0x17B6 JUMP JUMPDEST PUSH2 0x11DE DUP2 PUSH2 0x18F7 JUMP JUMPDEST DUP5 ADD SWAP2 POP POP SWAP3 SWAP2 POP POP JUMP JUMPDEST PUSH1 0x0 PUSH2 0x11F4 DUP3 PUSH2 0x1639 JUMP JUMPDEST PUSH2 0x11FE DUP2 DUP6 PUSH2 0x1655 JUMP JUMPDEST SWAP4 POP PUSH2 0x120E DUP2 DUP6 PUSH1 0x20 DUP7 ADD PUSH2 0x17B6 JUMP JUMPDEST PUSH2 0x1217 DUP2 PUSH2 0x18F7 JUMP JUMPDEST DUP5 ADD SWAP2 POP POP SWAP3 SWAP2 POP POP JUMP JUMPDEST PUSH1 0x0 PUSH2 0x122F PUSH1 0x2F DUP4 PUSH2 0x1655 JUMP JUMPDEST SWAP2 POP PUSH2 0x123A DUP3 PUSH2 0x1908 JUMP JUMPDEST PUSH1 0x40 DUP3 ADD SWAP1 POP SWAP2 SWAP1 POP JUMP JUMPDEST PUSH1 0x0 PUSH2 0x1252 PUSH1 0x22 DUP4 PUSH2 0x1655 JUMP JUMPDEST SWAP2 POP PUSH2 0x125D DUP3 PUSH2 0x1957 JUMP JUMPDEST PUSH1 0x40 DUP3 ADD SWAP1 POP SWAP2 SWAP1 POP JUMP JUMPDEST PUSH1 0x0 PUSH2 0x1275 PUSH1 0x16 DUP4 PUSH2 0x1655 JUMP JUMPDEST SWAP2 POP PUSH2 0x1280 DUP3 PUSH2 0x19A6 JUMP JUMPDEST PUSH1 0x20 DUP3 ADD SWAP1 POP SWAP2 SWAP1 POP JUMP JUMPDEST PUSH1 0x0 PUSH2 0x1298 PUSH1 0x52 DUP4 PUSH2 0x1655 JUMP JUMPDEST SWAP2 POP PUSH2 0x12A3 DUP3 PUSH2 0x19CF JUMP JUMPDEST PUSH1 0x60 DUP3 ADD SWAP1 POP SWAP2 SWAP1 POP JUMP JUMPDEST PUSH1 0x0 PUSH1 0xE0 DUP4 ADD PUSH1 0x0 DUP4 ADD MLOAD PUSH2 0x12C6 PUSH1 0x0 DUP7 ADD DUP3 PUSH2 0x134A JUMP JUMPDEST POP PUSH1 0x20 DUP4 ADD MLOAD PUSH2 0x12D9 PUSH1 0x20 DUP7 ADD DUP3 PUSH2 0x1140 JUMP JUMPDEST POP PUSH1 0x40 DUP4 ADD MLOAD DUP5 DUP3 SUB PUSH1 0x40 DUP7 ADD MSTORE PUSH2 0x12F1 DUP3 DUP3 PUSH2 0x11B0 JUMP JUMPDEST SWAP2 POP POP PUSH1 0x60 DUP4 ADD MLOAD PUSH2 0x1306 PUSH1 0x60 DUP7 ADD DUP3 PUSH2 0x134A JUMP JUMPDEST POP PUSH1 0x80 DUP4 ADD MLOAD PUSH2 0x1319 PUSH1 0x80 DUP7 ADD DUP3 PUSH2 0x134A JUMP JUMPDEST POP PUSH1 0xA0 DUP4 ADD MLOAD PUSH2 0x132C PUSH1 0xA0 DUP7 ADD DUP3 PUSH2 0x134A JUMP JUMPDEST POP PUSH1 0xC0 DUP4 ADD MLOAD PUSH2 0x133F PUSH1 0xC0 DUP7 ADD DUP3 PUSH2 0x116D JUMP JUMPDEST POP DUP1 SWAP2 POP POP SWAP3 SWAP2 POP POP JUMP JUMPDEST PUSH2 0x1353 DUP2 PUSH2 0x179D JUMP JUMPDEST DUP3 MSTORE POP POP JUMP JUMPDEST PUSH2 0x1362 DUP2 PUSH2 0x179D JUMP JUMPDEST DUP3 MSTORE POP POP JUMP JUMPDEST PUSH1 0x0 PUSH2 0x1375 DUP3 DUP5 DUP7 PUSH2 0x118B JUMP JUMPDEST SWAP2 POP DUP2 SWAP1 POP SWAP4 SWAP3 POP POP POP JUMP JUMPDEST PUSH1 0x0 PUSH1 0x20 DUP3 ADD SWAP1 POP PUSH2 0x1396 PUSH1 0x0 DUP4 ADD DUP5 PUSH2 0x114F JUMP JUMPDEST SWAP3 SWAP2 POP POP JUMP JUMPDEST PUSH1 0x0 PUSH1 0x20 DUP3 ADD SWAP1 POP PUSH2 0x13B1 PUSH1 0x0 DUP4 ADD DUP5 PUSH2 0x115E JUMP JUMPDEST SWAP3 SWAP2 POP POP JUMP JUMPDEST PUSH1 0x0 PUSH1 0x60 DUP3 ADD SWAP1 POP DUP2 DUP2 SUB PUSH1 0x0 DUP4 ADD MSTORE PUSH2 0x13D1 DUP2 DUP7 PUSH2 0x11E9 JUMP JUMPDEST SWAP1 POP PUSH2 0x13E0 PUSH1 0x20 DUP4 ADD DUP6 PUSH2 0x1359 JUMP JUMPDEST PUSH2 0x13ED PUSH1 0x40 DUP4 ADD DUP5 PUSH2 0x1359 JUMP JUMPDEST SWAP5 SWAP4 POP POP POP POP JUMP JUMPDEST PUSH1 0x0 PUSH1 0x20 DUP3 ADD SWAP1 POP DUP2 DUP2 SUB PUSH1 0x0 DUP4 ADD MSTORE PUSH2 0x140E DUP2 PUSH2 0x1222 JUMP JUMPDEST SWAP1 POP SWAP2 SWAP1 POP JUMP JUMPDEST PUSH1 0x0 PUSH1 0x20 DUP3 ADD SWAP1 POP DUP2 DUP2 SUB PUSH1 0x0 DUP4 ADD MSTORE PUSH2 0x142E DUP2 PUSH2 0x1245 JUMP JUMPDEST SWAP1 POP SWAP2 SWAP1 POP JUMP JUMPDEST PUSH1 0x0 PUSH1 0x20 DUP3 ADD SWAP1 POP DUP2 DUP2 SUB PUSH1 0x0 DUP4 ADD MSTORE PUSH2 0x144E DUP2 PUSH2 0x1268 JUMP JUMPDEST SWAP1 POP SWAP2 SWAP1 POP JUMP JUMPDEST PUSH1 0x0 PUSH1 0x20 DUP3 ADD SWAP1 POP DUP2 DUP2 SUB PUSH1 0x0 DUP4 ADD MSTORE PUSH2 0x146E DUP2 PUSH2 0x128B JUMP JUMPDEST SWAP1 POP SWAP2 SWAP1 POP JUMP JUMPDEST PUSH1 0x0 PUSH1 0x20 DUP3 ADD SWAP1 POP DUP2 DUP2 SUB PUSH1 0x0 DUP4 ADD MSTORE PUSH2 0x148F DUP2 DUP5 PUSH2 0x12AE JUMP JUMPDEST SWAP1 POP SWAP3 SWAP2 POP POP JUMP JUMPDEST PUSH1 0x0 PUSH1 0x20 DUP3 ADD SWAP1 POP PUSH2 0x14AC PUSH1 0x0 DUP4 ADD DUP5 PUSH2 0x1359 JUMP JUMPDEST SWAP3 SWAP2 POP POP JUMP JUMPDEST PUSH1 0x0 PUSH1 0xE0 DUP3 ADD SWAP1 POP PUSH2 0x14C7 PUSH1 0x0 DUP4 ADD DUP11 PUSH2 0x1359 JUMP JUMPDEST PUSH2 0x14D4 PUSH1 0x20 DUP4 ADD DUP10 PUSH2 0x114F JUMP JUMPDEST DUP2 DUP2 SUB PUSH1 0x40 DUP4 ADD MSTORE PUSH2 0x14E6 DUP2 DUP9 PUSH2 0x11E9 JUMP JUMPDEST SWAP1 POP PUSH2 0x14F5 PUSH1 0x60 DUP4 ADD DUP8 PUSH2 0x1359 JUMP JUMPDEST PUSH2 0x1502 PUSH1 0x80 DUP4 ADD DUP7 PUSH2 0x1359 JUMP JUMPDEST PUSH2 0x150F PUSH1 0xA0 DUP4 ADD DUP6 PUSH2 0x1359 JUMP JUMPDEST PUSH2 0x151C PUSH1 0xC0 DUP4 ADD DUP5 PUSH2 0x117C JUMP JUMPDEST SWAP9 SWAP8 POP POP POP POP POP POP POP POP JUMP JUMPDEST PUSH1 0x0 PUSH1 0xE0 DUP3 ADD SWAP1 POP PUSH2 0x153D PUSH1 0x0 DUP4 ADD DUP11 PUSH2 0x1359 JUMP JUMPDEST PUSH2 0x154A PUSH1 0x20 DUP4 ADD DUP10 PUSH2 0x1359 JUMP JUMPDEST PUSH2 0x1557 PUSH1 0x40 DUP4 ADD DUP9 PUSH2 0x114F JUMP JUMPDEST DUP2 DUP2 SUB PUSH1 0x60 DUP4 ADD MSTORE PUSH2 0x1569 DUP2 DUP8 PUSH2 0x11E9 JUMP JUMPDEST SWAP1 POP PUSH2 0x1578 PUSH1 0x80 DUP4 ADD DUP7 PUSH2 0x1359 JUMP JUMPDEST PUSH2 0x1585 PUSH1 0xA0 DUP4 ADD DUP6 PUSH2 0x1359 JUMP JUMPDEST PUSH2 0x1592 PUSH1 0xC0 DUP4 ADD DUP5 PUSH2 0x117C JUMP JUMPDEST SWAP9 SWAP8 POP POP POP POP POP POP POP POP JUMP JUMPDEST PUSH1 0x0 PUSH1 0x80 DUP3 ADD SWAP1 POP PUSH2 0x15B3 PUSH1 0x0 DUP4 ADD DUP8 PUSH2 0x1359 JUMP JUMPDEST PUSH2 0x15C0 PUSH1 0x20 DUP4 ADD DUP7 PUSH2 0x1359 JUMP JUMPDEST PUSH2 0x15CD PUSH1 0x40 DUP4 ADD DUP6 PUSH2 0x1359 JUMP JUMPDEST PUSH2 0x15DA PUSH1 0x60 DUP4 ADD DUP5 PUSH2 0x1359 JUMP JUMPDEST SWAP6 SWAP5 POP POP POP POP POP JUMP JUMPDEST PUSH1 0x0 PUSH2 0x15ED PUSH2 0x15FE JUMP JUMPDEST SWAP1 POP PUSH2 0x15F9 DUP3 DUP3 PUSH2 0x181B JUMP JUMPDEST SWAP2 SWAP1 POP JUMP JUMPDEST PUSH1 0x0 PUSH1 0x40 MLOAD SWAP1 POP SWAP1 JUMP JUMPDEST PUSH1 0x0 PUSH8 0xFFFFFFFFFFFFFFFF DUP3 GT ISZERO PUSH2 0x1623 JUMPI PUSH2 0x1622 PUSH2 0x18AA JUMP JUMPDEST JUMPDEST PUSH2 0x162C DUP3 PUSH2 0x18F7 JUMP JUMPDEST SWAP1 POP PUSH1 0x20 DUP2 ADD SWAP1 POP SWAP2 SWAP1 POP JUMP JUMPDEST PUSH1 0x0 DUP2 MLOAD SWAP1 POP SWAP2 SWAP1 POP JUMP JUMPDEST PUSH1 0x0 DUP3 DUP3 MSTORE PUSH1 0x20 DUP3 ADD SWAP1 POP SWAP3 SWAP2 POP POP JUMP JUMPDEST PUSH1 0x0 DUP3 DUP3 MSTORE PUSH1 0x20 DUP3 ADD SWAP1 POP SWAP3 SWAP2 POP POP JUMP JUMPDEST PUSH1 0x0 DUP2 SWAP1 POP SWAP3 SWAP2 POP POP JUMP JUMPDEST PUSH1 0x0 PUSH2 0x167C DUP3 PUSH2 0x179D JUMP JUMPDEST SWAP2 POP PUSH2 0x1687 DUP4 PUSH2 0x179D JUMP JUMPDEST SWAP3 POP DUP3 PUSH32 0xFFFFFFFFFFFFFFFFFFFFFFFFFFFFFFFFFFFFFFFFFFFFFFFFFFFFFFFFFFFFFFFF SUB DUP3 GT ISZERO PUSH2 0x16BC JUMPI PUSH2 0x16BB PUSH2 0x184C JUMP JUMPDEST JUMPDEST DUP3 DUP3 ADD SWAP1 POP SWAP3 SWAP2 POP POP JUMP JUMPDEST PUSH1 0x0 PUSH2 0x16D2 DUP3 PUSH2 0x179D JUMP JUMPDEST SWAP2 POP PUSH2 0x16DD DUP4 PUSH2 0x179D JUMP JUMPDEST SWAP3 POP DUP2 PUSH32 0xFFFFFFFFFFFFFFFFFFFFFFFFFFFFFFFFFFFFFFFFFFFFFFFFFFFFFFFFFFFFFFFF DIV DUP4 GT DUP3 ISZERO ISZERO AND ISZERO PUSH2 0x1716 JUMPI PUSH2 0x1715 PUSH2 0x184C JUMP JUMPDEST JUMPDEST DUP3 DUP3 MUL SWAP1 POP SWAP3 SWAP2 POP POP JUMP JUMPDEST PUSH1 0x0 PUSH2 0x172C DUP3 PUSH2 0x179D JUMP JUMPDEST SWAP2 POP PUSH2 0x1737 DUP4 PUSH2 0x179D JUMP JUMPDEST SWAP3 POP DUP3 DUP3 LT ISZERO PUSH2 0x174A JUMPI PUSH2 0x1749 PUSH2 0x184C JUMP JUMPDEST JUMPDEST DUP3 DUP3 SUB SWAP1 POP SWAP3 SWAP2 POP POP JUMP JUMPDEST PUSH1 0x0 PUSH2 0x1760 DUP3 PUSH2 0x177D JUMP JUMPDEST SWAP1 POP SWAP2 SWAP1 POP JUMP JUMPDEST PUSH1 0x0 DUP2 ISZERO ISZERO SWAP1 POP SWAP2 SWAP1 POP JUMP JUMPDEST PUSH1 0x0 DUP2 SWAP1 POP SWAP2 SWAP1 POP JUMP JUMPDEST PUSH1 0x0 PUSH20 0xFFFFFFFFFFFFFFFFFFFFFFFFFFFFFFFFFFFFFFFF DUP3 AND SWAP1 POP SWAP2 SWAP1 POP JUMP JUMPDEST PUSH1 0x0 DUP2 SWAP1 POP SWAP2 SWAP1 POP JUMP JUMPDEST DUP3 DUP2 DUP4 CALLDATACOPY PUSH1 0x0 DUP4 DUP4 ADD MSTORE POP POP POP JUMP JUMPDEST PUSH1 0x0 JUMPDEST DUP4 DUP2 LT ISZERO PUSH2 0x17D4 JUMPI DUP1 DUP3 ADD MLOAD DUP2 DUP5 ADD MSTORE PUSH1 0x20 DUP2 ADD SWAP1 POP PUSH2 0x17B9 JUMP JUMPDEST DUP4 DUP2 GT ISZERO PUSH2 0x17E3 JUMPI PUSH1 0x0 DUP5 DUP5 ADD MSTORE JUMPDEST POP POP POP POP JUMP JUMPDEST PUSH1 0x0 PUSH1 0x2 DUP3 DIV SWAP1 POP PUSH1 0x1 DUP3 AND DUP1 PUSH2 0x1801 JUMPI PUSH1 0x7F DUP3 AND SWAP2 POP JUMPDEST PUSH1 0x20 DUP3 LT DUP2 EQ ISZERO PUSH2 0x1815 JUMPI PUSH2 0x1814 PUSH2 0x187B JUMP JUMPDEST JUMPDEST POP SWAP2 SWAP1 POP JUMP JUMPDEST PUSH2 0x1824 DUP3 PUSH2 0x18F7 JUMP JUMPDEST DUP2 ADD DUP2 DUP2 LT PUSH8 0xFFFFFFFFFFFFFFFF DUP3 GT OR ISZERO PUSH2 0x1843 JUMPI PUSH2 0x1842 PUSH2 0x18AA JUMP JUMPDEST JUMPDEST DUP1 PUSH1 0x40 MSTORE POP POP POP JUMP JUMPDEST PUSH32 0x4E487B7100000000000000000000000000000000000000000000000000000000 PUSH1 0x0 MSTORE PUSH1 0x11 PUSH1 0x4 MSTORE PUSH1 0x24 PUSH1 0x0 REVERT JUMPDEST PUSH32 0x4E487B7100000000000000000000000000000000000000000000000000000000 PUSH1 0x0 MSTORE PUSH1 0x22 PUSH1 0x4 MSTORE PUSH1 0x24 PUSH1 0x0 REVERT JUMPDEST PUSH32 0x4E487B7100000000000000000000000000000000000000000000000000000000 PUSH1 0x0 MSTORE PUSH1 0x41 PUSH1 0x4 MSTORE PUSH1 0x24 PUSH1 0x0 REVERT JUMPDEST PUSH1 0x0 DUP1 REVERT JUMPDEST PUSH1 0x0 DUP1 REVERT JUMPDEST PUSH1 0x0 DUP1 REVERT JUMPDEST PUSH1 0x0 DUP1 REVERT JUMPDEST PUSH1 0x0 DUP1 REVERT JUMPDEST PUSH1 0x0 DUP1 REVERT JUMPDEST PUSH1 0x0 PUSH1 0x1F NOT PUSH1 0x1F DUP4 ADD AND SWAP1 POP SWAP2 SWAP1 POP JUMP JUMPDEST PUSH32 0x437573746F6D6572206E6F7420726567697374657265642120506C6561736520 PUSH1 0x0 DUP3 ADD MSTORE PUSH32 0x7265676973746572206669727374210000000000000000000000000000000000 PUSH1 0x20 DUP3 ADD MSTORE POP JUMP JUMPDEST PUSH32 0x4E6F207468697320747970652773206361727320617661696C61626C65206E6F PUSH1 0x0 DUP3 ADD MSTORE PUSH32 0x7721000000000000000000000000000000000000000000000000000000000000 PUSH1 0x20 DUP3 ADD MSTORE POP JUMP JUMPDEST PUSH32 0x4F6E6C79204142432063616E2061646420636172732100000000000000000000 PUSH1 0x0 DUP3 ADD MSTORE POP JUMP JUMPDEST PUSH32 0x4465706F736974206973206E6F7420656E6F75676821204465706F7369742073 PUSH1 0x0 DUP3 ADD MSTORE PUSH32 0x686F756C65206265206C6172676572207468616E207072696365202B20287820 PUSH1 0x20 DUP3 ADD MSTORE PUSH32 0x2B203129202A206D6F6E74686C7952656E740000000000000000000000000000 PUSH1 0x40 DUP3 ADD MSTORE POP JUMP JUMPDEST PUSH2 0x1A4D DUP2 PUSH2 0x1755 JUMP JUMPDEST DUP2 EQ PUSH2 0x1A58 JUMPI PUSH1 0x0 DUP1 REVERT JUMPDEST POP JUMP JUMPDEST PUSH2 0x1A64 DUP2 PUSH2 0x179D JUMP JUMPDEST DUP2 EQ PUSH2 0x1A6F JUMPI PUSH1 0x0 DUP1 REVERT JUMPDEST POP JUMP INVALID LOG2 PUSH5 0x6970667358 0x22 SLT KECCAK256 PUSH14 0x75218F16625E821BA7A07F3257AE 0x4B 0xBD 0x4F 0xD5 MULMOD DUP2 MLOAD 0xBC SLT 0xED 0xC1 0x26 EQ PUSH20 0x92177064736F6C63430008070033000000000000 "
		},
		"gasEstimates": {
			"creation": {
				"codeDepositCost": "1364800",
				"executionCost": "92008",
				"totalCost": "1456808"
			},
			"external": {
				"ABCAddCar(string,uint256,uint256,uint256)": "infinite",
				"ABCAddress()": "2577",
				"allABCAuditDepositRecord(uint256)": "infinite",
				"allCustomerAddresses(address)": "2867",
				"allCustomerRentCarRecord(uint256)": "infinite",
				"allCustomerReturnCarRecord(uint256)": "infinite",
				"carAvailability(string)": "infinite",
				"carInfo(string)": "infinite",
				"currentAuditRecordId()": "2453",
				"currentRentRecordId()": "2452",
				"currentReturnRecordId()": "2496",
				"customerRegister()": "24787",
				"customerRentCar(string,uint256,uint256)": "infinite",
				"customerRentingCarNumber(address,string)": "infinite"
			}
		},
		"methodIdentifiers": {
			"ABCAddCar(string,uint256,uint256,uint256)": "aa3250fa",
			"ABCAddress()": "d05a0447",
			"allABCAuditDepositRecord(uint256)": "b027a759",
			"allCustomerAddresses(address)": "c87dec7a",
			"allCustomerRentCarRecord(uint256)": "cb2acd80",
			"allCustomerReturnCarRecord(uint256)": "3a8c0e6e",
			"carAvailability(string)": "586fa64d",
			"carInfo(string)": "1049f50a",
			"currentAuditRecordId()": "001e4c44",
			"currentRentRecordId()": "9532007a",
			"currentReturnRecordId()": "5177d6d2",
			"customerRegister()": "e4962463",
			"customerRentCar(string,uint256,uint256)": "23786469",
			"customerRentingCarNumber(address,string)": "38266fe5"
		}
	},
	"abi": [
		{
			"inputs": [],
			"stateMutability": "nonpayable",
			"type": "constructor"
		},
		{
			"inputs": [
				{
					"internalType": "string",
					"name": "carName",
					"type": "string"
				},
				{
					"internalType": "uint256",
					"name": "carPrice",
					"type": "uint256"
				},
				{
					"internalType": "uint256",
					"name": "carMonthlyRent",
					"type": "uint256"
				},
				{
					"internalType": "uint256",
					"name": "number",
					"type": "uint256"
				}
			],
			"name": "ABCAddCar",
			"outputs": [
				{
					"internalType": "bool",
					"name": "",
					"type": "bool"
				}
			],
			"stateMutability": "nonpayable",
			"type": "function"
		},
		{
			"inputs": [],
			"name": "ABCAddress",
			"outputs": [
				{
					"internalType": "address",
					"name": "",
					"type": "address"
				}
			],
			"stateMutability": "view",
			"type": "function"
		},
		{
			"inputs": [
				{
					"internalType": "uint256",
					"name": "",
					"type": "uint256"
				}
			],
			"name": "allABCAuditDepositRecord",
			"outputs": [
				{
					"internalType": "uint256",
					"name": "auditRecordId",
					"type": "uint256"
				},
				{
					"internalType": "uint256",
					"name": "returnRecordId",
					"type": "uint256"
				},
				{
					"internalType": "uint256",
					"name": "damageFixFee",
					"type": "uint256"
				},
				{
					"internalType": "uint256",
					"name": "actualRefundAmount",
					"type": "uint256"
				}
			],
			"stateMutability": "view",
			"type": "function"
		},
		{
			"inputs": [
				{
					"internalType": "address",
					"name": "",
					"type": "address"
				}
			],
			"name": "allCustomerAddresses",
			"outputs": [
				{
					"internalType": "bool",
					"name": "",
					"type": "bool"
				}
			],
			"stateMutability": "view",
			"type": "function"
		},
		{
			"inputs": [
				{
					"internalType": "uint256",
					"name": "",
					"type": "uint256"
				}
			],
			"name": "allCustomerRentCarRecord",
			"outputs": [
				{
					"internalType": "uint256",
					"name": "rentRecordId",
					"type": "uint256"
				},
				{
					"internalType": "address",
					"name": "customerAddress",
					"type": "address"
				},
				{
					"internalType": "string",
					"name": "carName",
					"type": "string"
				},
				{
					"internalType": "uint256",
					"name": "rentMonth",
					"type": "uint256"
				},
				{
					"internalType": "uint256",
					"name": "totalMoneyDeposit",
					"type": "uint256"
				},
				{
					"internalType": "uint256",
					"name": "rentTimeStamp",
					"type": "uint256"
				},
				{
					"internalType": "int256",
					"name": "returnRecordId",
					"type": "int256"
				}
			],
			"stateMutability": "view",
			"type": "function"
		},
		{
			"inputs": [
				{
					"internalType": "uint256",
					"name": "",
					"type": "uint256"
				}
			],
			"name": "allCustomerReturnCarRecord",
			"outputs": [
				{
					"internalType": "uint256",
					"name": "returnRecordId",
					"type": "uint256"
				},
				{
					"internalType": "uint256",
					"name": "rentRecordId",
					"type": "uint256"
				},
				{
					"internalType": "address",
					"name": "customerAddress",
					"type": "address"
				},
				{
					"internalType": "string",
					"name": "carName",
					"type": "string"
				},
				{
					"internalType": "uint256",
					"name": "returnTimeStamp",
					"type": "uint256"
				},
				{
					"internalType": "uint256",
					"name": "rentFee",
					"type": "uint256"
				},
				{
					"internalType": "int256",
					"name": "auditRecordId",
					"type": "int256"
				}
			],
			"stateMutability": "view",
			"type": "function"
		},
		{
			"inputs": [
				{
					"internalType": "string",
					"name": "",
					"type": "string"
				}
			],
			"name": "carAvailability",
			"outputs": [
				{
					"internalType": "uint256",
					"name": "",
					"type": "uint256"
				}
			],
			"stateMutability": "view",
			"type": "function"
		},
		{
			"inputs": [
				{
					"internalType": "string",
					"name": "",
					"type": "string"
				}
			],
			"name": "carInfo",
			"outputs": [
				{
					"internalType": "string",
					"name": "name",
					"type": "string"
				},
				{
					"internalType": "uint256",
					"name": "price",
					"type": "uint256"
				},
				{
					"internalType": "uint256",
					"name": "monthlyRent",
					"type": "uint256"
				}
			],
			"stateMutability": "view",
			"type": "function"
		},
		{
			"inputs": [],
			"name": "currentAuditRecordId",
			"outputs": [
				{
					"internalType": "uint256",
					"name": "",
					"type": "uint256"
				}
			],
			"stateMutability": "view",
			"type": "function"
		},
		{
			"inputs": [],
			"name": "currentRentRecordId",
			"outputs": [
				{
					"internalType": "uint256",
					"name": "",
					"type": "uint256"
				}
			],
			"stateMutability": "view",
			"type": "function"
		},
		{
			"inputs": [],
			"name": "currentReturnRecordId",
			"outputs": [
				{
					"internalType": "uint256",
					"name": "",
					"type": "uint256"
				}
			],
			"stateMutability": "view",
			"type": "function"
		},
		{
			"inputs": [],
			"name": "customerRegister",
			"outputs": [
				{
					"internalType": "bool",
					"name": "",
					"type": "bool"
				}
			],
			"stateMutability": "nonpayable",
			"type": "function"
		},
		{
			"inputs": [
				{
					"internalType": "string",
					"name": "carName",
					"type": "string"
				},
				{
					"internalType": "uint256",
					"name": "rentMonth",
					"type": "uint256"
				},
				{
					"internalType": "uint256",
					"name": "totalDeposit",
					"type": "uint256"
				}
			],
			"name": "customerRentCar",
			"outputs": [
				{
					"components": [
						{
							"internalType": "uint256",
							"name": "rentRecordId",
							"type": "uint256"
						},
						{
							"internalType": "address",
							"name": "customerAddress",
							"type": "address"
						},
						{
							"internalType": "string",
							"name": "carName",
							"type": "string"
						},
						{
							"internalType": "uint256",
							"name": "rentMonth",
							"type": "uint256"
						},
						{
							"internalType": "uint256",
							"name": "totalMoneyDeposit",
							"type": "uint256"
						},
						{
							"internalType": "uint256",
							"name": "rentTimeStamp",
							"type": "uint256"
						},
						{
							"internalType": "int256",
							"name": "returnRecordId",
							"type": "int256"
						}
					],
					"internalType": "struct CarRental.customerRentCarRecord",
					"name": "",
					"type": "tuple"
				}
			],
			"stateMutability": "payable",
			"type": "function"
		},
		{
			"inputs": [
				{
					"internalType": "address",
					"name": "",
					"type": "address"
				},
				{
					"internalType": "string",
					"name": "",
					"type": "string"
				}
			],
			"name": "customerRentingCarNumber",
			"outputs": [
				{
					"internalType": "uint256",
					"name": "",
					"type": "uint256"
				}
			],
			"stateMutability": "view",
			"type": "function"
		}
	]
}